{
  "contractName": "TaskContract",
  "abi": [
    {
      "inputs": [],
      "name": "taskCounter",
      "outputs": [
        {
          "internalType": "uint256",
          "name": "",
          "type": "uint256"
        }
      ],
      "stateMutability": "view",
      "type": "function"
    },
    {
      "inputs": [
        {
          "internalType": "uint256",
          "name": "",
          "type": "uint256"
        }
      ],
      "name": "tasks",
      "outputs": [
        {
          "internalType": "uint256",
          "name": "id",
          "type": "uint256"
        },
        {
          "internalType": "string",
          "name": "title",
          "type": "string"
        },
        {
          "internalType": "string",
          "name": "description",
          "type": "string"
        },
        {
          "internalType": "bool",
          "name": "done",
          "type": "bool"
        },
        {
          "internalType": "uint256",
          "name": "createAt",
          "type": "uint256"
        }
      ],
      "stateMutability": "view",
      "type": "function"
    },
    {
      "inputs": [
        {
          "internalType": "string",
          "name": "_title",
          "type": "string"
        },
        {
          "internalType": "string",
          "name": "_description",
          "type": "string"
        }
      ],
      "name": "createTask",
      "outputs": [],
      "stateMutability": "nonpayable",
      "type": "function"
    }
  ],
  "bytecode": "0x60806040526000805534801561001457600080fd5b506107ee806100246000396000f3fe608060405234801561001057600080fd5b50600436106100415760003560e01c8063292a45851461004657806358671730146100625780638d97767214610080575b600080fd5b610060600480360381019061005b91906104d6565b6100b4565b005b61006a610180565b6040516100779190610567565b60405180910390f35b61009a600480360381019061009591906105ae565b610186565b6040516100ab95949392919061067e565b60405180910390f35b6040518060a00160405280600054815260200183815260200182815260200160001515815260200142815250600160008054815260200190815260200160002060008201518160000155602082015181600101908051906020019061011a9291906102d9565b5060408201518160020190805190602001906101379291906102d9565b5060608201518160030160006101000a81548160ff021916908315150217905550608082015181600401559050506000808154809291906101779061070e565b91905055505050565b60005481565b60016020528060005260406000206000915090508060000154908060010180546101af90610786565b80601f01602080910402602001604051908101604052809291908181526020018280546101db90610786565b80156102285780601f106101fd57610100808354040283529160200191610228565b820191906000526020600020905b81548152906001019060200180831161020b57829003601f168201915b50505050509080600201805461023d90610786565b80601f016020809104026020016040519081016040528092919081815260200182805461026990610786565b80156102b65780601f1061028b576101008083540402835291602001916102b6565b820191906000526020600020905b81548152906001019060200180831161029957829003601f168201915b5050505050908060030160009054906101000a900460ff16908060040154905085565b8280546102e590610786565b90600052602060002090601f016020900481019282610307576000855561034e565b82601f1061032057805160ff191683800117855561034e565b8280016001018555821561034e579182015b8281111561034d578251825591602001919060010190610332565b5b50905061035b919061035f565b5090565b5b80821115610378576000816000905550600101610360565b5090565b6000604051905090565b600080fd5b600080fd5b600080fd5b600080fd5b6000601f19601f8301169050919050565b7f4e487b7100000000000000000000000000000000000000000000000000000000600052604160045260246000fd5b6103e38261039a565b810181811067ffffffffffffffff82111715610402576104016103ab565b5b80604052505050565b600061041561037c565b905061042182826103da565b919050565b600067ffffffffffffffff821115610441576104406103ab565b5b61044a8261039a565b9050602081019050919050565b82818337600083830152505050565b600061047961047484610426565b61040b565b90508281526020810184848401111561049557610494610395565b5b6104a0848285610457565b509392505050565b600082601f8301126104bd576104bc610390565b5b81356104cd848260208601610466565b91505092915050565b600080604083850312156104ed576104ec610386565b5b600083013567ffffffffffffffff81111561050b5761050a61038b565b5b610517858286016104a8565b925050602083013567ffffffffffffffff8111156105385761053761038b565b5b610544858286016104a8565b9150509250929050565b6000819050919050565b6105618161054e565b82525050565b600060208201905061057c6000830184610558565b92915050565b61058b8161054e565b811461059657600080fd5b50565b6000813590506105a881610582565b92915050565b6000602082840312156105c4576105c3610386565b5b60006105d284828501610599565b91505092915050565b600081519050919050565b600082825260208201905092915050565b60005b838110156106155780820151818401526020810190506105fa565b83811115610624576000848401525b50505050565b6000610635826105db565b61063f81856105e6565b935061064f8185602086016105f7565b6106588161039a565b840191505092915050565b60008115159050919050565b61067881610663565b82525050565b600060a0820190506106936000830188610558565b81810360208301526106a5818761062a565b905081810360408301526106b9818661062a565b90506106c8606083018561066f565b6106d56080830184610558565b9695505050505050565b7f4e487b7100000000000000000000000000000000000000000000000000000000600052601160045260246000fd5b60006107198261054e565b91507fffffffffffffffffffffffffffffffffffffffffffffffffffffffffffffffff82141561074c5761074b6106df565b5b600182019050919050565b7f4e487b7100000000000000000000000000000000000000000000000000000000600052602260045260246000fd5b6000600282049050600182168061079e57607f821691505b602082108114156107b2576107b1610757565b5b5091905056fea2646970667358221220ab1ff39901e2008ef7aedfa9ea7198ede7475a17de3d9c86dd4c0c67dcdf744e64736f6c634300080a0033",
  "immutableReferences": {},
  "source": "// SPDX-License-Identifier: MIT\npragma solidity >=0.4.22 <0.9.0;\n\ncontract TaskContract {\n  uint public taskCounter = 0;\n\n  struct Task {\n    uint id;\n    string title;\n    string description;\n    bool done;\n    uint256 createAt;\n  }\n\n  mapping(uint256 => Task) public tasks;\n\n  function createTask(string memory _title,string memory _description) public {\n    tasks[taskCounter] = Task(taskCounter, _title, _description, false, block.timestamp);\n    taskCounter++;\n  }\n\n  // function toggleDone() {}\n}\n",
  "sourcePath": "/mnt/Datos/Programacion/ProyectosDap/dapp_Solidity_Javascript/contracts/TaskContracts.sol",
  "compiler": {
    "name": "solc",
    "version": "0.8.10+commit.fc410830.Emscripten.clang"
  },
  "schemaVersion": "3.4.4",
  "updatedAt": "2022-01-08T18:46:09.895Z",
  "devdoc": {
    "kind": "dev",
    "methods": {},
    "version": 1
  },
  "userdoc": {
    "kind": "user",
    "methods": {},
    "version": 1
  }
}